:020000041A00E0
:1000000000800010090B001A7901001A7B01001A08
:100010007D01001A7F01001A8101001A866DFF53CD
:10002000000000000000000000000000B12A001ADB
:100030008501001A00000000512B001AB52B001A90
:10004000852D001ABB01001ABB01001A0000000038
:10005000BB01001ABB01001ABB01001ABB01001A48
:10006000993F001ABB01001ABB01001ABB01001A1C
:10007000BB01001ABB01001ABB01001ABB01001A28
:10008000BB01001ABB01001ABB01001ABB01001A18
:10009000BB01001ABB01001ABB01001ABB01001A08
:1000A000BD01001ABB01001A853F001A8F3F001ADC
:1000B000BB01001ABB01001ABB01001ABB01001AE8
:1000C000BB01001ABB01001ABB01001ABB01001AD8
:1000D000BB01001ABB01001ABB01001ABB01001AC8
:1000E000BB01001ABB01001ABB01001ABB01001AB8
:1000F00000000000BB01001ABB01001ABB01001A7E
:1001000000000000BB01001ABB01001ABB01001A6D
:10011000BB01001AD05B001A00000010AC00000008
:10012000D05B001A0000081000000000D05B001A2D
:100130000000002000000000D05B001A00800020BA
:1001400000000000D05B001A00C00020000000008A
:10015000AC0000106C22000000000810000000003D
:1001600000000020000000000080002000000000CF
:1001700000C0002000000000FEE7FEE7FEE7FEE70B
:10018000FEE7FEE7FEE7FEE7FEE7002393420AD222
:1001900010B450F8044B41F8044B04339342F8D3A5
:1001A0005DF8044B7047704700238B4204D2002255
:1001B00040F8042B0433F8E77047FEE708B5002049
:1001C00003F010FE08BDFFFFFFFFFFFFFFFFFFFF73
:1001D000FFFFFFFFFFFFFFFFFFFFFFFFFFFFFFFF2F
:1001E000FFFFFFFFFFFFFFFFFFFFFFFFFFFFFFFF1F
:1001F000FFFFFFFFFFFFFFFFFFFFFFFFFFFFFFFF0F
:10020000FFFFFFFFFFFFFFFFFFFFFFFFFFFFFFFFFE
:10021000FFFFFFFFFFFFFFFFFFFFFFFFFFFFFFFFEE
:10022000FFFFFFFFFFFFFFFFFFFFFFFFFFFFFFFFDE
:10023000FFFFFFFFFFFFFFFFFFFFFFFFFFFFFFFFCE
:10024000FFFFFFFFFFFFFFFFFFFFFFFFFFFFFFFFBE
:10025000FFFFFFFFFFFFFFFFFFFFFFFFFFFFFFFFAE
:10026000FFFFFFFFFFFFFFFFFFFFFFFFFFFFFFFF9E
:10027000FFFFFFFFFFFFFFFFFFFFFFFFFFFFFFFF8E
:10028000FFFFFFFFFFFFFFFFFFFFFFFFFFFFFFFF7E
:10029000FFFFFFFFFFFFFFFFFFFFFFFFFFFFFFFF6E
:1002A000FFFFFFFFFFFFFFFFFFFFFFFFFFFFFFFF5E
:1002B000FFFFFFFFFFFFFFFFFFFFFFFFFFFFFFFF4E
:1002C000FFFFFFFFFFFFFFFFFFFFFFFFFFFFFFFF3E
:1002D000FFFFFFFFFFFFFFFFFFFFFFFFFFFFFFFF2E
:1002E000FFFFFFFFFFFFFFFFFFFFFFFFFFFFFFFF1E
:1002F000FFFFFFFFFFFFFFFFFFFFFFFFFFFFFFFF0E
:1003000030B583B0044601F097FA019025680021CA
:1003100000911C2003F0F8FC40E02D4B186801F020
:10032000FDF92C4B186801F0F9F92B4B01221A60EA
:1003300038E00134E4B2172C13D801211C2003F05B
:10034000E3FC009B5B00009300211C2003F0DCFC1D
:100350001B2003F00EFD0028EBD0009B013300931F
:10036000E7E701211C2003F0CFFC009B83F400038E
:10037000009300211C2003F0C7FC6420002103F03F
:1003800063FE00234FF0FF3269461448006802F014
:1003900055F84FF4FA7101A801F05EFB0E4B1B6893
:1003A000002BBAD04FF0FF310D4B186802F01CFA49
:1003B0000028EED00121292003F0A6FC284601F0F8
:1003C0009DFB0021292003F09FFC00240094B2E74C
:1003D000A822001098220010B000001090220010F7
:1003E0009C22001000B583B001F026FA019003E0D2
:1003F000322101A801F030FB0121282003F084FC08
:10040000282001F07BFB0021282003F07DFC0A4915
:10041000032003F0ACFD1B2003F0ABFC0028E7D168
:1004200000231A4619460548006802F007F8002024
:1004300001F0F0FBDCE700BFE856001A9C22001038
:1004400030B591B001F0F8F90F90322200216846E2
:1004500004F083F900252C4615E000234FF0FF320D
:100460000DA92648006801F0E9FF254B186801F046
:10047000D1FB002001F0CEFB00252C464FF4FA7191
:100480000FA801F0E9FA01212A2003F03DFC282001
:1004900001F034FB00212A2003F036FC4FF0FF323C
:1004A0000EA9184B186802F0F1F80028E6D00F2DBD
:1004B00010D1154BA3FB0434E4080D94134B1B78A7
:1004C000002BCAD14FF0FF320DA91148006801F08E
:1004D000B5FFCAE70E9A14440E49684604F058FD69
:1004E0006946032003F043FD013500231A461946EF
:1004F0000948006801F0A2FFC0E700BFAC2200106D
:10050000A02200109022001089888888B400001072
:10051000942200109056001A9C22001070B592B0E0
:1005200001F08AF91190282310932E4B0193022495
:10053000009410AB22462C492C4800F04DF92C4E6B
:1005400001960094002322462A492B4800F044F9E2
:100550002A4D01950094002322462949294800F09C
:100560003BF9306801F056FB286801F053FB32225A
:10057000002102A804F0F1F804E04FF4FA7111A888
:1005800001F06AFA01212C2003F0BEFB282001F0C3
:10059000B5FA00212C2003F0B7FB4FF0FF320FA972
:1005A000194B186802F072F80028E6D00F9A174B22
:1005B0001A60174902A804F0EBFC02A9032003F01B
:1005C000D6FC0121134B19702C2003F09DFB282031
:1005D00001F094FA00212C2003F096FB002001F09A
:1005E0002DF8CAE7A0220010A856001A0103001A2D
:1005F000A8220010BC56001AE503001A9822001029
:10060000C856001A4104001A94220010AC000010D1
:10061000D856001AB400001030B52DED028B83B00F
:1006200001F00AF901903149032003F0A0FC9FED8D
:10063000308A8DED008A0025F0EE488A1AE0B4EE8B
:10064000E67AF1EE10FA09DD45B1B4EEE88AF1EE92
:1006500010FA03D967EE277A78EEA78A00231A46A4
:1006600019462448006801F0E9FE4FF4FA7101A828
:1006700001F0F2F901212C2003F046FB282001F0C3
:100680003DFA00212C2003F03FFB1B4B186801F0C2
:1006900045F81A4B00221A6001F0CEF804464FF0DC
:1006A000FF326946164B186801F0F0FF0028DCD0D5
:1006B00001F0C2F8001B134CA4FB0030800907EEC8
:1006C000900AF8EE677A9DED007A0F4BD3ED006A41
:1006D000B4EEE67AF1EE10FAB1D5002DAFD167EEA7
:1006E000277A38EE278A0125B8E700BF9C56001A02
:1006F000000000009C220010A0220010B00000109A
:10070000AC220010D34D6210B022001000B583B0AF
:1007100003F050FC01211C2003F020FA00211B20D3
:1007200003F01CFA204C4FF4E1320321204603F081
:1007300077FC1E49207803F07BFC207803F07CFCDA
:1007400001212D2003F0E0FA04220F21184800F0C7
:1007500061F804220121174800F05CF8042201210D
:10076000154800F057F8154800F06CF80024019483
:100770000225009523462A461149124800F02CF81C
:1007800001940126009623462A460F490F4800F09F
:1007900023F80194009623462A460D490D4800F09F
:1007A0001BF800F0FFFFFEE7B5000010F056001A3E
:1007B0009022001094220010AC2200109C22001005
:1007C0000057001A1D05001A0C57001A290A001AB2
:1007D0001457001A3D0A001A10B582B002EB42020B
:1007E000C2EB02125400A2B2059C01949DF8104085
:1007F000009400F0F1FE08B102B010BD01212820E4
:1008000003F082FA0249032003F0B1FBFEE700BFC8
:100810006457001A10B5044608461146002201F03C
:10082000E8FD206004B110BD0449032003F09FFBE4
:100830000349032003F09BFBFEE700BF1C57001A8F
:100840002857001A10B5044603220021012001F0A8
:10085000D0FD206004B110BD0121282003F054FA1E
:100860000249032003F083FBFEE700BF4457001A50
:1008700008B500F0E1FF014B186008BDB42200107C
:1008800000B583B000F0D8FF0E4B18600E4B1B680C
:10089000C01A0E4B18600E4B00221A600D4B1B68DD
:1008A00033B90D4B186800F039FF03B05DF804FB55
:1008B000002301930222009208490948FFF78CFFA8
:1008C000F3E700BFBC220010B4220010B8220010D1
:1008D000B0000010B8000010A02200108457001AC9
:1008E0001906001A014B00221A707047C02200102E
:1008F000014B00221A707047C022001008B5264B29
:100900001B78032B44D8DFE803F00222092A03F006
:1009100030FA58B9204B02221A7007E01F4B1B789F
:10092000272B04D81D4A13780133137008BD03F038
:1009300020FA30B1184B00221A70184B00221A709E
:10094000F0E7154B01221A70FFF792FFF5E703F06D
:1009500010FA0028EAD0104B03221A70E6E7104B79
:100960001B78272B04D80E4A137801331370DDE768
:1009700003F0FFF930B9084B01221A70084B00222E
:100980001A70F0E7044B00221A70FFF779FFF5E7C1
:10099000FFF7A8FFCAE700BFC0220010B600001092
:1009A000B700001030B4F2EE047A20EE270ABCEE55
:1009B000C00A10EE103A9AB2184BA3FB02439B09EF
:1009C0004FF47A7404FB13239BB2154AA2FB034233
:1009D000520902F1300444544D1CEDB2642404FB6E
:1009E000123292B20F4CA4FB02C2D20830324255EE
:1009F0008A1CD2B22E258554CD1CEDB2A4FB034235
:100A0000D20802EB820254001B1B303343550431E1
:100A1000C9B20023435430BC704700BFD34D6210AD
:100A20001F85EB51CDCCCCCC08B5FFF761FF24205E
:100A3000FFF764FF012001F061F8F8E710B5A2B0FC
:100A4000002421943222214614A803F086FE40227D
:100A5000214604A803F081FE00F0EEFE039018E0AA
:100A6000214B83ED000A04AC00212046FFF79AFFDA
:100A70001E4B1A680094219B1D4914A804F088FAA3
:100A800014A9032003F073FA4FF47A7103A800F05D
:100A9000E3FF4FF0FF3221A9164B186801F0F6FD75
:100AA0000028F6D001212B2003F02EF9282001F098
:100AB00025F800212B2003F027F90C4B1A68219B05
:100AC0009B1A0D4AA2FB03231B0B07EE903AB8EECC
:100AD000670ADFED0A7AB4EEE70AF1EE10FABFDD3D
:100AE0009FED070ABCE700BFB0220010AC00001069
:100AF0009057001AAC220010A16AA643000096434A
:100B0000000000007047FFFF10B572B6194B1A4A7B
:100B10001A600433194A1A60002305E0184A4FF09E
:100B2000FF3142F823100133072BF7D962B6154B7A
:100B300007E003F10C049A6859681868FFF725FB71
:100B40002346114A9342F4D306E01C46596854F8F0
:100B5000080BFFF729FB23460C4A9342F5D302F01A
:100B6000B9FF03F0C5FDFFF7CDFFFFF7CFFD30BFA5
:100B7000FDE700BF003105400010DF10FFF7DF0187
:100B800080E200E01401001A5001001A7801001AF6
:100B900070477047092303604FF0FF3070475823B8
:100BA00003604FF0FF307047022904D90923036026
:100BB0004FF0FF30704701207047582303604FF01B
:100BC000FF30704702291FD82DE9F0411D46174616
:100BD00006460024AC4211D202F02BFAB0F1FF3FDE
:100BE000F8D004F1010838550D2803D00A2801D0A7
:100BF0004446EFE702F01DFA404603E0132333605A
:100C00004FF0FF30BDE8F081132303604FF0FF3059
:100C1000704702290CD870B51D4616460024AC4218
:100C200004D2305D02F000FA0134F8E7284670BDC6
:100C3000132303604FF0FF307047FFFF054B1B6825
:100C400023B1044B1868014419607047014B024AF4
:100C50001A60F6E7BC00001018230010124A12F0C8
:100C6000070F07D0D11D21F00701C1F50053134430
:100C70000A4601E04FF400530C4802600021416035
:100C80001344083B23F007030948036059601960C7
:100C9000991A51601360074B1960074B1960074B95
:100CA0004FF000421A607047C4000010D0200010BE
:100CB000C0000010CC200010C8200010C42000107C
:100CC00010B4134A00E01A4613688342FBD35168FC
:100CD000541884420AD041684418A3420BD00360E0
:100CE000904200D010605DF8044B704740680144AA
:100CF00051601046EFE7074C2468A34206D05B68BA
:100D00001944416013681B680360E9E70460E7E782
:100D1000D0200010C000001070B5044600F084FD23
:100D20003F4B1B68BBB13F4B1B681C4216D134B311
:100D3000083414F0070F22D024F00704083404F01C
:100D40000703E3B14FF0A00383F31188BFF36F8F64
:100D5000BFF34F8FFEE7FFF781FFE4E700F0FEFDF2
:100D6000002601F0E7F916F0070F57D04FF0A00367
:100D700083F31188BFF36F8FBFF34F8FFEE734B15A
:100D8000294B1B68A34206D3284B1D6809E000F0DD
:100D9000E5FD0026E5E700F0E1FD0026E1E72B4652
:100DA00015466A68A24202D22A68002AF7D11C4A74
:100DB0001268AA4214D01E6808362A681A606B6846
:100DC0001B1B102B14D9281910F0070F0CD04FF053
:100DD000A00383F31188BFF36F8FBFF34F8FFEE73C
:100DE00000F0BCFD0026BCE743606C60FFF768FFC5
:100DF0006A680D490B689B1A0B600D4909688B42A4
:100E000001D20B490B60074B1B6813436B60002337
:100E10002B6000F0A3FD002EA5D1A2E7304670BDE7
:100E2000C0000010C4200010C8200010D020001006
:100E3000CC20001080B338B50446A0F1080550F866
:100E4000042C164909680A4208D14FF0A00383F325
:100E50001188BFF36F8FBFF34F8FFEE750F8080C78
:100E600040B14FF0A00383F31188BFF36F8FBFF33E
:100E70004F8FFEE722EA010244F8042C00F0D4FC74
:100E800054F8041C064A13680B4413602846FFF705
:100E900017FF00F063FD38BD704700BFC42000108D
:100EA000C8200010064B1A681368B3FA83F35B0975
:100EB000036013B9D368186870470020704700BFFB
:100EC000D820001008B54160006191420CD8D21AB8
:100ED00083699A4201D3012008BD011D094B18689E
:100EE00001F05DF90020F7E79A4201D2994206D25B
:100EF000011D054B186801F052F90020ECE70120B4
:100F0000EAE700BFDC200010D820001038B501F05F
:100F1000E1FD0F4B1B6813B101F0FEFD38BD0D4D17
:100F2000284601F023F90C4C204601F01FF90B4B29
:100F30001D600B4B1C60002210210A2001F059FAA1
:100F4000034B18600028E7D0064901F01FFDE3E7D6
:100F50000C210010E0200010F4200010D820001018
:100F6000DC200010B857001A00B583B0FFF7CEFFA1
:100F70000D4B1B685BB10D4B0193042300930023C1
:100F80004FF4B4720A490B4800F026FB40B94FF009
:100F9000A00383F31188BFF36F8FBFF34F8FFEE77A
:100FA00003B05DF804FB00BF0C21001010210010FD
:100FB000C057001A9112001AC0B130B585B015465D
:100FC0000446174A106840B31A46009101950294EE
:100FD00005291CDC00F062FF022810D000231A460D
:100FE00069460F48006801F029FA14E04FF0A003A9
:100FF00083F31188BFF36F8FBFF34F8FFEE700239A
:10100000089A69460648006801F018FA03E00023D0
:10101000694601F0D3FA05B030BD0020FBE700BF00
:101020000C21001070B582B01A4B1B681A6852B3BD
:10103000DB681E68DC68251D284601F0CAF8636A73
:1010400020469847E369012BEED1A36933449E42C1
:1010500007D26360246129460E4B186801F09FF89F
:10106000E2E7002100910B4632462046FFF7A4FF3D
:101070000028D9D14FF0A00383F31188BFF36F8FFD
:10108000BFF34F8FFEE7044A1068024908601360FF
:1010900002B070BDD8200010DC20001038B5054625
:1010A00000F0CAFB0446074B1B68834205D80023A7
:1010B0002B60044B1C60204638BDFFF7B3FF0123B3
:1010C0002B60F6E70821001070B582B005460E4689
:1010D000144B1B68DB68DC68201D01F07AF8E369BB
:1010E000012B04D0636A2046984702B070BDA16905
:1010F0002B46324629442046FFF7E4FE0028F1D073
:10110000002100910B462A462046FFF755FF002894
:10111000E8D14FF0A00383F31188BFF36F8FBFF3C3
:101120004F8FFEE7D820001070B582B006460C46FF
:1011300000F07AFB01A8FFF7B1FF019B1BBB05463E
:101140000CB9B04218D22CB1114B1B681C68B4FA10
:1011500084F464092246711B0E4B186801F02AFCC6
:1011600000F0FCFB88B90C4B4FF080521A60BFF3C3
:101170004F8FBFF36F8F08E000F0F0FB2946304639
:10118000FFF7A2FF01E000F0E9FB02B070BD00BF75
:10119000DC2000100C21001004ED00E030B589B017
:1011A00006E007990698059B9847049B002B0BDAED
:1011B000002204A9354B186801F068FA002862D0B3
:1011C000049B002BF1DAECE7069C636913B1201D48
:1011D00000F0FFFF03A8FFF761FF049B092BE7D88E
:1011E00001A252F823F000BF1112001A1112001AC6
:1011F0001112001AB111001A5912001A7F12001AA6
:101200001112001A1112001AB111001A5912001A03
:101210000599A5690B46024629442046FFF752FE70
:101220000028C5D0636A20469847E369012BBFD1E7
:10123000A269002100910B46059802442046FFF761
:10124000BBFE0028B4D14FF0A00383F31188BFF395
:101250006F8FBFF34F8FFEE70599A16131B1034650
:10126000024601442046FFF72DFEA1E74FF0A00300
:1012700083F31188BFF36F8FBFF34F8FFEE72046D4
:10128000FFF7D8FD94E709B030BD00BF0C21001076
:1012900000B583B001A8FFF705FE0199FFF744FFF1
:1012A000FFF77CFFF6E7FFFF28B141690C4A914246
:1012B0000AD0002070474FF0A00383F31188BFF3DA
:1012C0006F8FBFF34F8FFEE7836A064A934202D0C7
:1012D0001BB100207047002070470120704700BFFD
:1012E00010220010F8210010084B1B681B6823B95E
:1012F000074B4FF0FF321A607047044B1B68DB68E6
:10130000DB685A68024B1A60704700BF1821001052
:10131000F021001010B50446006BFFF78BFD20464E
:10132000FFF788FD10BD2DE9F04781460D461746B1
:101330009A46089EDDF824800A9C9200A521206B25
:1013400003F00BFA236B07F18042013A03EB8207AB
:1013500027F00707676400230F2B06D8EA5CE11823
:1013600081F834200AB10133F6E7002384F84330D2
:10137000062E00D90626E662266500256565201D35
:1013800000F0FFFE04F1180000F0FBFE2461C6F13E
:101390000706A6616462A56584F85C50524649461A
:1013A000384601F06FFB2060B8F1000F01D0C8F89B
:1013B0000040BDE8F087FFFF38B50024062C08D8B0
:1013C00004EB840293000E48184400F0CFFE013471
:1013D000F4E70C4D284600F0C9FE0B4C204600F007
:1013E000C5FE0A4800F0C2FE094800F0BFFE0948E9
:1013F00000F0BCFE084B1D60084B1C6038BD00BFF0
:1014000020210010C4210010D8210010F821001064
:101410002422001010220010182100101C2100109E
:1014200010B5044601F056FB214A136801331360DE
:10143000204B1B685BB1204B1B686BB91D4B1B68B5
:10144000DA6AE36A9A4207D81A4B1C6004E0194B27
:101450001C601368012B27D0184A136801331360EE
:10146000A364E36A01229A401549086802430A60AE
:1014700003EB83039A00211D1248104400F084FE00
:1014800001F04AFB0C4B1B686BB10A4B1B68DA6A14
:10149000E36A9A4207D20C4B4FF080521A60BFF3B6
:1014A0004F8FBFF36F8F10BDFFF786FFD4E700BFEC
:1014B000AC210010142100100C220010BC210010DF
:1014C000C02100102021001004ED00E00F4B1B682C
:1014D000D3B110B501F0FEFA0D4BDB68DC68201DBE
:1014E00000F077FE0B4A1368013B1360074A13684C
:1014F000013B136001F010FB2046FFF70BFF034B8D
:101500001B68002BE6D110BD704700BFB021001052
:1015100024220010AC21001008B5FFF7D7FF064BBE
:101520001B68012BF9D9054B4FF080521A60BFF3AD
:101530004F8FBFF36F8FF0E72021001004ED00E024
:1015400070B504460E461D4B1D681D4B18680430CF
:1015500000F03FFE50B91A4B1B68DA6A012303FA08
:1015600002F218490B6823EA02030B60B4F1FF3F53
:101570000DD02C44124B1B685C60A54210D9124B55
:1015800018680F4B1968043100F009FE70BD002E79
:10159000EFD00B4B196804310C4800F0F5FDF5E76E
:1015A0000B4B1868064B1968043100F0F8FD094B25
:1015B0001B68A342EAD9074B1C60E7E738220010FA
:1015C00014210010C02100101C2100101022001056
:1015D00018210010F02100102DE9F04385B00746D6
:1015E0008846144699469000FFF796FBE8B10646F8
:1015F0006020FFF791FB054698B10663D5B1002343
:10160000039302950D9B01930C9B00934B4622463E
:1016100041463846FFF787FE2846FFF701FF0120C5
:1016200005E03046FFF706FCE8E74FF0FF3005B075
:10163000BDE8F0834FF0FF30F9E7FFFF38B504460F
:1016400001F048FA002C34D0251D284600F0C1FDD9
:1016500070B9E26A02EB82018B002649CB583BB994
:10166000012303FA02F224490B6823EA02030B6008
:10167000A36A1BB104F1180000F0ABFD1F4A136808
:10168000013313601E4B1B68A34215D01D4A13681B
:10169000013B13602046FFF73DFEFFF725FE01F0FA
:1016A0003BFA194B1B681BB1154B1B68A3420CD0AE
:1016B00038BD134B1C68C7E72946144800F064FD89
:1016C000134A136801331360E9E7124B1B6843B1F7
:1016D0004FF0A00383F31188BFF36F8FBFF34F8FD9
:1016E000FEE70D4B4FF080521A60BFF34F8FBFF3F0
:1016F0006F8FDDE720210010C0210010BC210010F9
:1017000014210010AC2100100C2200102422001023
:10171000B0210010B821001004ED00E038B568B128
:1017200004461C4B1B68834207D001F0D3F92046C6
:10173000FFF7BAFD58B901F0EFF938BD4FF0A0033B
:1017400083F31188BFF36F8FBFF34F8FFEE7251D23
:10175000284600F03EFDE36A01229A400E490868DF
:1017600002430A6003EB83039A0029460B481044A6
:1017700000F00AFDE26A074B1B68DB6A9A42DAD383
:10178000074B4FF080521A60BFF34F8FBFF36F8F3C
:10179000D1E700BF14210010C0210010202100104B
:1017A00004ED00E000B583B0194B019300230093D2
:1017B0005A2218491848FFF70FFF012807D00128BF
:1017C00008D0B0F1FF3F1AD003B05DF804FBFFF77B
:1017D000CBFBF4E74FF0A00383F31188BFF36F8FC7
:1017E000BFF34F8F0D4B4FF0FF321A600C4B0122AD
:1017F0001A600C4B00221A6001F00EFAE4E74FF079
:10180000A00383F31188BFF36F8FBFF34F8FFEE701
:10181000EC210010C857001A1915001AF021001009
:101820000C22001038220010024A136801331360A2
:10183000704700BFB8210010014B1868704700BF07
:1018400038220010F8B53A4B1B68002B64D1394B95
:101850001D6801351D60C5B9374B1B681B6843B156
:101860004FF0A00383F31188BFF36F8FBFF34F8F47
:10187000FEE7314A1168314B186810601960304A30
:10188000136801331360FFF72FFD2E4B1B68AB422B
:1018900038D900242C4B1B68DB6A03EB83039A00C6
:1018A0002A4B9B58012B3CD901243AE00124224BBE
:1018B0001B681B6843B3204B1B68DB68DE687368DA
:1018C0009D4226D3371D384600F083FCB36A1BB116
:1018D00006F1180000F07DFCF36A01229A401C49D1
:1018E000086802430A6003EB83039A0039461748ED
:1018F000104400F049FCF26A134B1B68DB6A9A4201
:10190000D4D2D4E70024D2E70E4B4FF0FF321A6056
:10191000C0E70C4A1360BDE70E4A13680133136039
:1019200000240D4B1B6803B101242046F8BD00BF05
:10193000B821001038220010182100101C210010BE
:10194000F4210010F02100101421001020210010BB
:10195000C0210010B42100103C22001038B5354BD6
:101960001B6843B94FF0A00383F31188BFF36F8F57
:10197000BFF34F8FFEE701F0ADF82E4B1A68013A26
:101980001A601B68002B4DD12B4B1B680BB9002430
:1019900049E00024294B1B681BB3284BDB68DC683B
:1019A00004F1180000F015FC251D284600F011FC7C
:1019B000E36A01229A402249086802430A6003EB65
:1019C00083039A0029461F48104400F0DDFBE26AB9
:1019D0001D4B1B68DB6A9A42DCD31C4B01221A6048
:1019E000D8E70CB1FFF780FC194B1C6874B9174B92
:1019F0001B68E3B1174B4FF080521A60BFF34F8F53
:101A0000BFF36F8F01240EE0013C07D0FFF71AFFF0
:101A10000028F9D00D4B01221A60F5E70C4B00228B
:101A20001A60E4E7002401F077F8204638BD00246E
:101A3000F9E700BFB8210010AC210010F821001018
:101A4000C021001020210010142100103C220010A1
:101A5000B421001004ED00E038B550B1054689B955
:101A60004FF0A00383F31188BFF36F8FBFF34F8F45
:101A7000FEE74FF0A00383F31188BFF36F8FBFF32E
:101A80004F8FFEE71A4B1B6843B14FF0A00383F35F
:101A90001188BFF36F8FBFF34F8FFEE70C46FFF740
:101AA000C3FE144B18682A681444824209D9A24222
:101AB00001D82C600EE0A04201D32C600AE02C601B
:101AC00004E0A24201D8A04210D22C600021201ACA
:101AD000FFF736FDFFF742FF38B9074B4FF0805252
:101AE0001A60BFF34F8FBFF36F8F38BD2C60F1E7E3
:101AF000B82100103822001004ED00E010B5A8B1A4
:101B000004460F4B1B6843B14FF0A00383F31188C9
:101B1000BFF36F8FBFF34F8FFEE7FFF785FE002106
:101B20002046FFF70DFDFFF719FF38B9054B4FF0C1
:101B300080521A60BFF34F8FBFF36F8F10BD00BF8D
:101B4000B821001004ED00E02D4B1B681BB12D4B9C
:101B500001221A60704710B52A4B00221A602A4BE6
:101B60001B681B6B1A68B2F1A53F03D15A68B2F12A
:101B7000A53F1BD0244B18681968343100F0E8FAEF
:101B8000224B1B68B3FA83F3DBB2C3F11F0303EBF1
:101B900083018A001E498A588AB94FF0A00383F353
:101BA0001188BFF36F8FBFF34F8FFEE79A68B2F1D2
:101BB000A53FDFD1DB68B3F1A53FDBD1E0E71448F7
:101BC0009A00D418A10001444C6864684C601A441F
:101BD000910008310844844209D003EB83039A0042
:101BE0000B4B13445B68DA68074B1A6010BD6068E2
:101BF00003EB83029100064A0A445060EDE700BF00
:101C0000B82100103C22001014210010C021001047
:101C10002021001038B5044600F05CFF64B3251D98
:101C2000284600F0D6FA70B9E26A02EB82018B0016
:101C30002B49CB583BB9012303FA02F229490B681F
:101C400023EA02030B60A36A1BB104F1180000F041
:101C5000C0FA2946244800F097FA94F85C30DBB2C9
:101C6000012B0CD000F058FF204B1B685BB9204BB8
:101C70001B68A3420ED038BD1D4B1C68CFE7002364
:101C800084F85C30EEE700F025FFFFF72DFB00F055
:101C900043FFECE7154B1B68A3B1164B1B6843B120
:101CA0004FF0A00383F31188BFF36F8FBFF34F8F03
:101CB000FEE7114B4FF080521A60BFF34F8FBFF316
:101CC0006F8FD8E7084B1A680C4B1B689A4203D1F8
:101CD000074B00221A60CEE7FFF736FFCBE700BFC5
:101CE00020210010C0210010102200100C22001032
:101CF00014210010B821001004ED00E0AC21001008
:101D000058B110B50C46094B1968183100F047FA64
:101D100001212046FFF714FC10BD4FF0A00383F310
:101D20001188BFF36F8FBFF34F8FFEE714210010B0
:101D300038B570B10C4615460A4A1168183100F0E2
:101D400023FA0DB14FF0FF3429462046FFF7F8FB88
:101D500038BD4FF0A00383F31188BFF36F8FBFF33B
:101D60004F8FFEE71421001038B5C368DC6824B338
:101D700004F11805284600F02CFA184B1B682BBB01
:101D8000251D284600F025FAE36A01229A401449ED
:101D9000086802430A6003EB83039A00294611484E
:101DA000104400F0F1F9E26A0F4B1B68DB6A9A42BB
:101DB00011D901200D4B18600EE04FF0A00383F302
:101DC0001188BFF36F8FBFF34F8FFEE72946084896
:101DD00000F0DAF9E7E7002038BD00BFB8210010B5
:101DE000C021001020210010142100103C220010FE
:101DF000F8210010034B1B680360034B1B68436012
:101E0000704700BFF421001038220010F8B5C8B1A7
:101E1000054601B30C4600F05DFE1B4B19686B686C
:101E2000C81A2268B2F1FF3F26D02F68174E3668D5
:101E3000B74201D08B4224D9824215D800232360B7
:101E400001241AE04FF0A00383F31188BFF36F8FD2
:101E5000BFF34F8FFEE74FF0A00383F31188BFF36A
:101E60006F8FBFF34F8FFEE75B1A13442360284642
:101E7000FFF7C0FF002400E0002400F04DFE2046E4
:101E8000F8BD0124F9E700BF38220010F42100104A
:101E9000014B01221A6070473C220010054B1B6861
:101EA00033B1054B1B680BB100207047022070470F
:101EB000012070470C220010B8210010002850D0DB
:101EC00038B50446C26A29490968C96A8A4240D2BB
:101ED0008169002905DB25490968C96AC1F1070143
:101EE0008161606902EB82029100214A0A449042BA
:101EF00005D01E4A1268D26AE262012038BD251D53
:101F0000284600F066F9A0B1184B1B68DB6AE36253
:101F1000012404FA03F21749086802430A6003EB3C
:101F200083039A0029461248104400F02DF92046F8
:101F3000E4E7E36A03EB83018A000D498A58002A2B
:101F4000E2D101229A400B490B6823EA02030B609D
:101F5000DAE7026D054B1B68DB6A9A4203D3002067
:101F6000CCE7002070470120C8E700BF1421001013
:101F700020210010C021001000284CD038B50446A4
:101F8000274A1268824208D04FF0A00383F31188D9
:101F9000BFF36F8FBFF34F8FFEE7426D42B94FF033
:101FA000A00383F31188BFF36F8FBFF34F8FFEE75A
:101FB000013A4265C06A216D88422ED00AB10020E4
:101FC00038BD251D284600F004F970B9E26A02EB1D
:101FD00082018B001349CB583BB9012303FA02F26B
:101FE00011490B6823EA02030B60236DE362C3F11E
:101FF0000702A261012404FA03F20B4908680243B4
:102000000A6003EB83039A0029460648104400F057
:10201000BBF82046D4E7002070470020D0E700BF7F
:102020001421001020210010C0210010002856D0DB
:1020300038B50446406D40B94FF0A00383F31188D2
:10204000BFF36F8FBFF34F8FFEE7226D8A4200D23E
:102050000A46E16A914201D0012800D038BD2048EB
:102060000068A04232D0E262A069002802DBC2F11F
:102070000702A261636901EB81018800194A0244E9
:102080009342EBD1251D284600F0A3F870B9E26A0F
:1020900002EB82018B001349CB583BB9012303FAB1
:1020A00002F211490B6823EA02030B60E36A012282
:1020B0009A400D49086802430A6003EB83039A00C3
:1020C00029460848104400F05FF8C7E74FF0A00326
:1020D00083F31188BFF36F8FBFF34F8FFEE7704715
:1020E0001421001020210010C0210010054B1B6896
:1020F00023B1044B1A68536D01335365014B1868C3
:10210000704700BF1421001010B582B00C4601903A
:102110000023009300F0DEFC01992246044802F0FF
:10212000A9FE009B002BFCD000F0F6FC02B010BD15
:102130004458001A08B5044802F022FF03492C2035
:10214000FFF7E2FF08BD00BFD057001AF457001A8E
:1021500008B5044802F08EFE03495020FFF7D4FF73
:1021600008BD00BF1458001AF457001A00F1080304
:1021700043604FF0FF328260C3600361002303605D
:10218000704700230361704743684B609A688A6018
:10219000516099600861036801330360704730B48F
:1021A0000D68B5F1FF3F02D000F1080202E00269BC
:1021B00004E01A4653681C68AC42FAD953684B6075
:1021C00099608A605160086103680133036030BC24
:1021D00070470369416882688A60416851605A6843
:1021E000824206D0002202611A68013A1A60186819
:1021F000704782685A60F5E7436A23B1036B186839
:10220000C0F1070070470020704710B5044600F089
:1022100061FCA26BE36B9A4204D0002400F07CFCCA
:10222000204610BD0124F9E710B5044600F052FC29
:10223000A36B23B9012400F06FFC204610BD0024DD
:10224000F9E770B504461646856B026C5AB9036807
:102250001BB100200135A56370BD4068FFF78CFEFF
:1022600000236360F6E76EB9806802F068FA226CBA
:10227000A3681344A3606268934219D32368A360E0
:102280000020E7E7C06802F05AFA226C5242E36885
:102290001344E36021688B4202D263681A44E2600F
:1022A000022E01D00020D5E725B1013D0020D1E765
:1022B0000020CFE70020CDE7026C72B110B5C368F3
:1022C0001344C3604468A34201D30368C3600C464F
:1022D000C168204602F033FA10BD704738B5054694
:1022E00000F0F8FB95F8454064B203E0FFF7D0FD3D
:1022F000013C64B2002C08DD6B6A33B105F12400A7
:10230000FFF732FD0028F3D0F0E7FF2385F84530D2
:1023100000F002FC00F0DEFB95F8444064B203E0FC
:10232000FFF7B6FD013C64B2002C08DD2B6933B128
:1023300005F11000FFF718FD0028F3D0F0E7FF23A8
:1023400085F8443000F0E8FB38BDFFFF38B5E0B158
:1023500004460D4600F0BEFB2168E26B236C03FBD4
:10236000021060600020A063A160013A02FB031329
:10237000E360FF2384F8443084F84530EDB92369E5
:1023800063B900F0C9FB012038BD4FF0A00383F30F
:102390001188BFF36F8FBFF34F8FFEE704F110007A
:1023A000FFF7E2FC0028ECD0084B4FF080521A6097
:1023B000BFF34F8FBFF36F8FE3E704F11000FFF718
:1023C000D5FE04F12400FFF7D1FEDAE704ED00E0CA
:1023D00038B51D46049C0B4649B92460E06323646C
:1023E00001212046FFF7B2FF84F84C5038BD22602F
:1023F000F4E740B94FF0A00383F31188BFF36F8F68
:10240000BFF34F8FFEE7F0B583B0054699B101FBEE
:1024100000F017460C465030FEF77EFC064638B1F9
:1024200000903B4600F1500221462846FFF7D0FFBE
:10243000304603B0F0BD0020EBE7FFFFF0B585B0FC
:10244000019278B10446B1B1022B20D1E26B012A8E
:102450001DD04FF0A00383F31188BFF36F8FBFF33C
:102460004F8FFEE74FF0A00383F31188BFF36F8F08
:10247000BFF34F8FFEE7026C002AE5D04FF0A003B8
:1024800083F31188BFF36F8FBFF34F8FFEE71E46B4
:102490000F46FFF703FD50B9019B53B14FF0A00366
:1024A00083F31188BFF36F8FBFF34F8FFEE70025D3
:1024B0003BE0002539E0324639462046FFF7C1FEB1
:1024C000636A6BB938B13C4B4FF080521A60BFF36E
:1024D0004F8FBFF36F8F00F01FFB012005B0F0BDE1
:1024E00004F12400FFF740FC0028F4D0324B4FF0F9
:1024F00080521A60BFF34F8FBFF36F8FEBE700F08E
:102500000BFB0020EAE702A8FFF774FC012519E0A5
:10251000002384F8443021E0002384F8453023E090
:102520002046FFF7DBFEFFF719FA00F0D3FAA26BA3
:10253000E36B9A42BFD3022EBDD0019B002BDED0AD
:10254000002DE0D000F0E8FAFFF76EF900F0C2FAD3
:1025500094F844305BB2B3F1FF3FD9D094F84530E2
:102560005BB2B3F1FF3FD7D000F0D6FA01A902A8C1
:10257000FFF74CFCC8B92046FFF747FE0028CFD034
:10258000019904F11000FFF7BBFB2046FFF7A6FE00
:10259000FFF7E4F90028C8D1074B4FF080521A60CA
:1025A000BFF34F8FBFF36F8FBFE72046FFF796FE55
:1025B000FFF7D4F9002091E704ED00E02DE9F8439E
:1025C00078B10446B1B1022B20D1E06B01281DD0B7
:1025D0004FF0A00383F31188BFF36F8FBFF34F8FCA
:1025E000FEE74FF0A00383F31188BFF36F8FBFF3B3
:1025F0004F8FFEE7006C0028E5D04FF0A00383F377
:102600001188BFF36F8FBFF34F8FFEE71F469046D1
:10261000894600F089FBEFF311864FF0A00383F3A6
:102620001188BFF36F8FBFF34F8FA26BE36B9A429A
:1026300006D3022F04D0002086F31188BDE8F8836A
:1026400094F845506DB23A4649462046FFF7F9FDE9
:10265000B5F1FF3F05D06B1C5BB284F8453001201B
:10266000EAE7636A0BB90120E6E704F12400FFF70B
:102670007BFB30B1B8F1000F05D00120C8F8000095
:10268000DAE70120D8E70120D6E7FFFFF0B585B0F3
:10269000019280B10446B9B10F46FFF7FFFBF8B9CC
:1026A000019BFBB14FF0A00383F31188BFF36F8F41
:1026B000BFF34F8FFEE74FF0A00383F31188BFF302
:1026C0006F8FBFF34F8FFEE7036C002BE4D04FF00A
:1026D000A00383F31188BFF36F8FBFF34F8FFEE723
:1026E00000263EE000263CE039462046FFF7E4FDA8
:1026F000013DA563236923B900F00EFA012005B05E
:10270000F0BD04F11000FFF72FFB0028F4D0354B8B
:102710004FF080521A60BFF34F8FBFF36F8FEBE71C
:1027200000F0FAF90020EAE702A8FFF763FB0126B0
:1027300021E0002384F8443029E0002384F8453068
:102740002BE02046FFF7CAFDFFF708F909E0204615
:10275000FFF7C4FDFFF702F92046FFF765FD0028EB
:102760003DD100F0B7F9A56B002DBDD1019B002B29
:10277000D6D0002ED8D000F0CFF9FFF755F800F0F2
:10278000A9F994F844305BB2B3F1FF3FD1D094F88B
:1027900045305BB2B3F1FF3FCFD000F0BDF901A9E6
:1027A00002A8FFF733FB0028D1D12046FFF73CFDFC
:1027B0000028C6D0019904F12400FFF7A1FA2046B1
:1027C000FFF78CFDFFF7CAF80028CAD1054B4FF080
:1027D00080521A60BFF34F8FBFF36F8FC1E70020A5
:1027E0008DE700BF04ED00E070B584B0019158B1F1
:1027F0000446036C8BB14FF0A00383F31188BFF341
:102800006F8FBFF34F8FFEE74FF0A00383F3118864
:10281000BFF36F8FBFF34F8FFEE7FFF73FFB50B95A
:10282000019B5BB14FF0A00383F31188BFF36F8F5F
:10283000BFF34F8FFEE700252E4654E000252E46BD
:1028400051E0013BA36323683BB123694BB900F01E
:1028500063F90125284604B070BDFFF747FC6060AE
:10286000F3E704F11000FFF77FFA0028EFD0464BA2
:102870004FF080521A60BFF34F8FBFF36F8FE6E7C0
:1028800045B14FF0A00383F31188BFF36F8FBFF3FF
:102890004F8FFEE700F040F9DCE702A8FFF7AAFA45
:1028A00001262AE0002384F8443032E0002384F833
:1028B000453034E000F00EF96068FFF7FFFA054696
:1028C00000F02AF93BE02046FFF708FDFFF746F845
:1028D00009E02046FFF702FDFFF740F82046FFF72A
:1028E000A3FC002840D100F0F5F8A36B002BA8D181
:1028F000019B002BC4D0002ECFD000F00DF9FEF7C5
:1029000093FF00F0E7F894F844305BB2B3F1FF3F77
:10291000C8D094F845305BB2B3F1FF3FC6D000F0A9
:10292000FBF801A902A8FFF771FA0028D1D12046CF
:10293000FFF77AFC0028C6D02368002BBAD0019993
:1029400004F12400FFF7DCF92046FFF7C7FCFFF78E
:1029500005F80028C7D10C4B4FF080521A60BFF326
:102960004F8FBFF36F8FBEE70DB9002572E700F000
:10297000B1F82046FFF740FC01466068FFF756FBC0
:1029800000F0CAF8F1E700BF04ED00E00023072BD8
:102990000CD8074A52F833200AB10133F7E7044A4A
:1029A00042F8331002EBC30358607047704700BF12
:1029B000C422001070B504460D46164600F08AF891
:1029C00094F844305BB2B3F1FF3F0DD094F845303A
:1029D0005BB2B3F1FF3F0BD000F09EF8A36B5BB18D
:1029E0002046FFF77BFC70BD002384F84430EDE700
:1029F000002384F84530EFE73246294604F12400ED
:102A0000FFF796F9ECE7FFFF82B0002301930D4B2F
:102A10001B68B3F1FF3F08D04FF0A00383F3118888
:102A2000BFF36F8FBFF34F8FFEE74FF0A00383F329
:102A30001188BFF36F8FBFF34F8F019B002BFCD02A
:102A400002B070470000001008480068006880F37A
:102A500008884FF0000080F3148862B661B6BFF3B7
:102A60004F8FBFF36F8F00DF00BF000008ED00E065
:102A7000DFF80C00016841F470010160704700004C
:102A800088ED00E04FF0807340F8043C21F0010134
:102A900040F8081C054B40F80C3C40F8202C6FF027
:102AA000020340F8243C4438704700BF092A001A4A
:102AB000074B19680868B0E8F04F80F30988BFF346
:102AC0006F8F4FF0000080F311887047AFF30080E4
:102AD000142100104FF0A00383F31188BFF36F8F10
:102AE000BFF34F8F0A4A136801331360012B00D0E4
:102AF0007047084B1B6813F0FF0FF9D04FF0A0038D
:102B000083F31188BFF36F8FBFF34F8FFEE700BFD2
:102B10000000001004ED00E0094B1B6843B94FF0C2
:102B2000A00383F31188BFF36F8FBFF34F8FFEE7CE
:102B3000013B034A13600BB983F31188704700BF50
:102B400000000010FFFFFFFFFFFFFFFFFFFFFFFF81
:102B5000EFF30980BFF36F8F154B1A681EF0100F4B
:102B600008BF20ED108A20E9F04F10602DE9090020
:102B70004FF0A00080F31188BFF34F8FBFF36F8F2A
:102B8000FEF7E2FF4FF0000080F3118809BC1968DE
:102B90000868B0E8F04F1EF0100F08BFB0EC108AC4
:102BA00080F30988BFF36F8F704700BFAFF30080D9
:102BB0001421001008B54FF0A00383F31188BFF370
:102BC0006F8FBFF34F8FFEF73DFE18B1034B4FF0F1
:102BD00080521A60002383F3118808BD04ED00E0E1
:102BE000084A0023136008490B60084B1B6808491A
:102BF000A1FB03139B09013B06490B6007231360EC
:102C0000704700BF10E000E018E000E0042300106F
:102C1000D34D621014E000E03A4B1A683A4B9A42E6
:102C200029D0384B1A68394B9A422DD010B582B052
:102C3000374B1A78D2B20192FF221A701B78DBB29E
:102C40008DF803309DF8033003F0A003314A137070
:102C5000314B07221A609DF8033013F0800F1CD00F
:102C60002D4A1368013B13609DF803305B00DBB213
:102C70008DF80330EFE74FF0A00383F31188BFF323
:102C80006F8FBFF34F8FFEE74FF0A00383F31188E0
:102C9000BFF36F8FBFF34F8FFEE71F4B1B68042BF3
:102CA00008D04FF0A00383F31188BFF36F8FBFF3F9
:102CB0004F8FFEE71B0203F4E063174A1360019B8A
:102CC000DBB2134A1370154B1A6842F460021A60A3
:102CD0001A6842F060421A60FFF782FF0024104B2E
:102CE0001C60FFF7C5FE0F4A136843F040431360B2
:102CF000FFF7AAFEFEF728FFFFF786FE204602B088
:102D000010BD00BF00ED00E071C20F4170C20F4165
:102D100000E400E0402200104422001020ED00E01A
:102D20000000001034EF00E0EFF305830F2B0FD904
:102D3000104A9B5CDBB2104A12789A4208D94FF0D5
:102D4000A00383F31188BFF36F8FBFF34F8FFEE7AC
:102D50000A4B1B6803F4E063094A1268934208D9DE
:102D60004FF0A00383F31188BFF36F8FBFF34F8F32
:102D7000FEE77047F0E300E0402200100CED00E0B9
:102D80004422001008B5054B0122C3F88021044BF2
:102D90001B6813B1024B1B68984708BD00E100E0B7
:102DA0004822001000231C2B12D810B4094A02EB51
:102DB000830112F823404A78488802EB44120649FE
:102DC00041F8220001331C2BF0D95DF8044B704709
:102DD000704700BF8858001A0060084010B5174AB5
:102DE000D2F8203123F4704343F41043C2F8203169
:102DF000D2F8243123F4704343F41043C2F8243151
:102E000001220F49062000F01BFA00244CB10B4BA5
:102E10005A6822F00C025A605A6842F003025A6063
:102E200010BD084800EB840101238A78497810F826
:102E3000240000F0DDFC0134E8E700BF003004406E
:102E400000CB280C8458001A08B5FFF7ABFFFFF73A
:102E5000C5FF08BD0022052A19D870B40C4911F825
:102E6000125001EB42014C780A4B05F5006653F80D
:102E700026100120A040014343F8261003EB451320
:102E8000002119550132052AE8D970BC70477047F6
:102E90000859001A00400F400023032B16D830B405
:102EA0000B4911F8132001EB43014D78094C02F551
:102EB000006254F822100120A84021EA000144F8E1
:102EC00022100133032BEBD930BC7047704700BF91
:102ED0000059001A00400F400023082B16D830B4C8
:102EE0000B4911F8132001EB43014D78094C02F511
:102EF000006254F822100120A84021EA000144F8A1
:102F000022100133082BEBD930BC7047704700BF4B
:102F10001459001A00400F4010B582B0084C6946A1
:102F2000204600F04DF9074A6946204600F068F94E
:102F300000226946204600F07CF902B010BD00BFB7
:102F400000300E40801A060010B50B4C204600F0F1
:102F5000B7F8636823F004036360236823F0FF037A
:102F600043F0070323600549204600F08AF86368B0
:102F700043F00203636010BD00500C40A0860100C6
:102F800008B5002000F0C8F8044B40F60802C3F86A
:102F9000842C0349002000F0D1F808BD00600840EF
:102FA00040420F0010B5074C204600F0DBFC4FF408
:102FB000E131204600F020FD0323E3600123E365B7
:102FC00010BD00BF00100C40034B5B6913F0200FD5
:102FD000FAD0014B1860704700100C40054B5B693C
:102FE00013F0010F03D0034B1868C0B270474FF0C5
:102FF000FF30704700100C4008B5FFF7D3FF0948B9
:1030000000F0B8F8FFF768FFFFF786FFFFF79CFFB7
:10301000FFF7B6FFFFF71EFFFFF73EFF00F0BCF91A
:1030200008BD00BF00400F4008B5C0B2FFF7CCFF9D
:1030300008BD08B5FFF7D2FF08BD08B5FFF7B2FF1E
:1030400008BDFFFF034B984201D083207047A520A5
:10305000704700BF00500C40044B984202D040F231
:10306000022070474FF4F170704700BF00500C40D1
:10307000036823F47F43090289B2194301600261A6
:10308000704770B506460D46FFF7E6FF00F02EFCD0
:1030900002224FF0FF33002100E02146AB420BD962
:1030A0004C1C02FB04F3B0FBF3F39D42F6D2FF2C61
:1030B000F3D902320021F1E73046FFF7D9FF70BDA6
:1030C00010B50446FFF7BEFF00F0F6FB2046FFF701
:1030D000C3FF00F0F1FB636823F00403636023681F
:1030E00023F0FF0343F00703236002492046FFF764
:1030F000C8FF10BDA0860100012909D1C0EBC000A6
:103100008200044B13441A69137DDBB2042BFBD0FD
:10311000704700BF0400001070B50546064EC4009D
:10312000221A93003344988800F0C6FB641BA30066
:10313000F3586C229A6170BD040000102DE9F04133
:103140000C460B4EC5002B1A4FEA830806EB08030A
:10315000988800F0CBFBB0FBF4F056F8083042083A
:103160001A6156F808301A69801A5861BDE8F08172
:10317000040000107047FFFF034B984201D003206A
:1031800070470420704700BF00400E4070B50D46E8
:1031900014461E46FFF7F0FF00F0A8FB55B104FBF4
:1031A00006F404EB40006400B0FBF4F0C0B2013858
:1031B000C0B270BD04EB840304EB4304F1E7FFFFEE
:1031C00038B505460C46FFF7D7FF01231A461946C6
:1031D00000F054FB0021E960084A2260217161710E
:1031E0000B232846FFF7D2FF000240F4001320799A
:1031F000400400F460201843286038BD801A06009F
:1032000070B505460E46046824F46F2424F47064F7
:103210000A600B79C3F10B03DBB24979FFF7B6FF04
:1032200044EA002033795B0403F4602303432B60FA
:1032300070BD08B50A710A68FFF7E2FF08BDFFFF1D
:1032400070B58AB005460E4614464CF250330993C9
:10325000062818D0002301222946042000F0C8FACD
:103260004A4A536C43F0010353648DF8085001A996
:10327000304600F035FA464B9E4216D9019B13F0BA
:10328000400F03D0FEE700F08DF9E3E713F0800F65
:1032900005D023F0800301930025012607E0049B5D
:1032A000013304930125002601E000252E469DF8F8
:1032B0000820019B43EA0263059A43EA0243039A0A
:1032C00043EA0233049A43EA022343F400632F4A99
:1032D00053642E4B1B6C13F0010FFAD00023012214
:1032E0000921042000F084FA06B34CF2503309930C
:1032F000099B5A1E0992002BFAD1019B43F08003CF
:1033000001939DF8082043EA0263059A43EA0243C9
:10331000039A43EA0233049A43EA022343F4006324
:103320001A4A5364002C2ED10AB070BD002DF9D07A
:103330004CF250330993099B5A1E0992002BFAD183
:10334000049B5A1E04929DF80810019B43EA0163F6
:10335000059943EA0143039943EA013343EA02230F
:1033600043F40063094A5364DCE70A4800EB840134
:10337000CB788A78497810F8240000F039FA0134C3
:10338000112CF2D9D0E70024FAE700BF0000054075
:1033900080778E062C59001A08B5692000F0A6FA2D
:1033A000014B186008BD00BF04230010F0B40B6887
:1033B00013F0800F02D023F040030B600746012575
:1033C0003AE04B6903FB02F3B3FBF5F31CE01C4648
:1033D000B0EB040C27D4674506D98D60771CCF600D
:1033E0000A618C61CB6167460132B2F5807F1DDCDA
:1033F0000C6814F0400FE4D0731C02FA03FC4B6914
:1034000003FB0CF3B3FBF5F3DFF838C06345EBD9EE
:10341000DFF834C0634509D814F0800FD7D1741C8D
:1034200023FA04F4D4E7CCF1000CD4E70136032EE0
:1034300001DC0122D9E70135042D01DC0026F6E785
:10344000F0BC7047FF5E4C0900D01213F0B599B084
:1034500005460C465C22002101A801F07EF980237C
:1034600000936369059323798DF8043069462846F3
:10347000FFF79CFF069BAB4227D0EB1A2ED41E46CB
:10348000109B23F0400310936369159323798DF803
:10349000443010A92846FFF789FF169BAB421FD086
:1034A000EB1A25D41F462B4B9D4223D90E9BED1AB8
:1034B00033D4AE423BDCBE4231DC6D460FCD0FC48F
:1034C00095E80F0084E80F0006E06D460FCD0FC4AD
:1034D00095E80F0084E80F0019B0F0BD5B42CEE71D
:1034E00010AD0FCD0FC495E80F0084E80F00F3E78F
:1034F0005B42D7E74023089363690D9308A92846E8
:10350000FFF754FF0E9BAB42D0D108AD0FCD0FC4D7
:1035100095E80F0084E80F00DEE76D42C9E710ADC3
:103520000FCD0FC495E80F0084E80F00D4E7AF4239
:1035300007DB08AD0FCD0FC495E80F0084E80F003E
:10354000CAE710AD0FCD0FC495E80F0084E80F0057
:10355000C2E700BF80778E0630B4054600231C20EA
:1035600000E001331C2818D103EB430251000C4A40
:103570000A441479844210D003EB43014A000849FD
:103580008A5AAA42EDD803EB43025100044A0A4486
:103590005288AA42E5D32046E4E730BC704700BF1A
:1035A0008059001A82B04FF47A7301930D4A9369DF
:1035B00023F0020192698A4201D00A4A916123F004
:1035C0000303094A1168094A914201D943F00403EF
:1035D000044A9361019B5A1E0192002BFAD102B05A
:1035E000704700BF000005402859001AFF2C310128
:1035F0001230054B53F8200010F0010F02D1C0F338
:1036000004607047112070470000054000F112026D
:10361000034B53F82220034B185C00EA92007047DA
:10362000000005407859001A08B510280AD8DFE8CC
:1036300000F0440B0D18210924272A2D09093034E4
:10364000383C400000203AE01E4838E01E4BD3F8DA
:103650002C3103F00703042B01D01C482FE000207D
:103660002DE0194BD3F82C3103F00703042B27D09E
:10367000164824E0164B186821E0164B18681EE027
:10368000154B18681BE0144B586818E000F068F8F8
:1036900015E0002100F09AF811E0012100F096F801
:1036A0000DE0022100F092F809E0032100F08EF80D
:1036B00005E0042100F08AF801E04FF4004008BD65
:1036C0000648FCE7001BB7000030044040787D014D
:1036D000FC58001A2859001A4C22001080F0FA02F7
:1036E00038B505460C460879FFF79EFF6061194B17
:1036F0002B44194A934221D818B380232360002316
:10370000A360E360B5FBF0F32361144A954203D94B
:1037100003FB00F0A84207D021462846FFF796FE9B
:10372000A3688BB1013BA360236983B1E2680AB14E
:10373000013AE260013B2361002038BD4FF0FF30C9
:10374000FBE74FF0FF30F8E74FF0FF30F5E74FF0C1
:10375000FF30F2E7103A6BFF1005940BFF5E4C0947
:1037600030B583B0174D6C6CC4F30360FFF75CFF9A
:10377000154B1B6801932B6C13F0010F20D0C4F381
:103780000743C4F30132C4F30121C4F380150133AC
:1037900001320DF1080C614411F8041C14F0800F83
:1037A00008D13DB94900B3FBF1F3B0FBF2F000FBE7
:1037B00003F003E0B0FBF2F003FB00F003B030BD18
:1037C0000020FBE7000005407459001A38B50C468C
:1037D0000846FFF70DFF05462046FFF717FF044692
:1037E0002846FFF721FF0134B0FBF4F038BDFFFF9E
:1037F00030B400F11604A40004F1804404F5A024C0
:1038000064681B2813D811291AD00E4D25400AB11F
:1038100045F400650BB145F0010545EA0165163038
:10382000800000F1804000F5A020456008E044F0F1
:1038300001041630800000F1804000F5A0204460B3
:1038400030BC7047FEF7FFE01B280CD81630800014
:1038500000F1804000F5A020406810F0010F04D175
:10386000C0F304607047112070471120704708B5FD
:10387000FFF7EAFFFFF7D8FE08BDFFFF71B901218E
:103880000AB141F00401022B0AD0B0F5A17F0AD39E
:10389000A0F59170064B43F8301070470321EFE715
:1038A00041F02001F1E72030024B43F8301070471F
:1038B0000020054000100540B0F5A17F09D3094A5A
:1038C000A0F5917052F8303043F0010342F83030E7
:1038D0007047054A203052F8303043F0010342F877
:1038E00030307047002005400010054010B5B0F59D
:1038F000A17F09D3A0F591730D4A52F8334014F01B
:10390000010F07D1002010BD00F12003094A52F831
:103910003340F4E7FFF720FEFFF7A9FF14F0E00FB4
:1039200003D10123B0FBF3F0EDE70223FAE700BF78
:103930000020054000100540094B984209D003F5CE
:103940008053984207D0A3F58023984205D00020E9
:10395000704702207047032070470120704700BF66
:1039600000100C4030B583B00446FFF7E5FF01239B
:103970001A4619460E4D35F81000FFF77FFF072352
:10398000A3600023E3656360E3602362E36463652F
:103990002365084B9C4206D00323E3601023A362F7
:1039A000019B03B030BD00232361A3690193F3E7BA
:1039B000F459001A0020084038B505460C46FFF7B8
:1039C000BBFF0C4B33F81000FFF790FF2301B0FB57
:1039D000F3F3D9B2EA6842F08002EA602960C3F3E7
:1039E00007226A60EA6822F08002EA60B0FBF3F026
:1039F000000938BDEC59001A2DE9F04F83B0019051
:103A00008846FFF799FF324B33F81000FFF76EFF3F
:103A100006464FF0FF3701244FF0000BA246D9466F
:103A20002AE042424B1C17E00AB31746AB46A246B7
:103A300099460135AC421ED933093007A4FB000179
:103A400004FB0311621908FB02F2002300F018FBCB
:103A500002460B460028E4DB9742EAD3002BE8D06D
:103A6000190CE6D1022BDFD8002DDDD0E1E7174697
:103A7000AB46A246994601341FB10F2C01D8002550
:103A8000D8E7B9F1000F1ED0019A1146D36843F070
:103A90008003D3605FFA89F31360C9F3072353608F
:103AA000D36823F08003D3604FEA0A13DBB20BF034
:103AB0000F0213438B6233090AFB03F3DA4409FB59
:103AC0000AF9B3FBF9F9484603B0BDE8F08F00BF2F
:103AD000EC59001A08B50B4A0B4B9A6003F50C73AE
:103AE0001B6903F47F63202B04D0FFF7ADF9FFF7C8
:103AF00083FA08BD044AD2F8883043F47003C2F850
:103B00008830F2E70000001A00ED00E0044B186076
:103B1000044A136843F0010313600120704700BF9B
:103B20003C000010001000E030B40B4D00EB8000B2
:103B30002C182856087094F90110117094F902207D
:103B40001A7094F90320029B1A7094F90420039BC5
:103B50001A7030BC704700BFFC59001A10F1020FF8
:103B600000F0C780B0F1FF3F00F0C58070B584B0B1
:103B70000C4600238DF80F308DF80E308DF80D3087
:103B80008DF80C308DF80B300DF10B03019303AB66
:103B900000930DF10D030DF10E020DF10F01FFF772
:103BA000C3FF052C00F2A980DFE804F00981274556
:103BB00063035348FFF7DEFA012004B070BD9DF89F
:103BC0000F109DF80E309DF80D2042F0D00203EB4F
:103BD00041134C4941F823209DF80C309DF90B20EE
:103BE000012000FA02F1464C03F5006354F823204B
:103BF00022EA010244F82320DFE79DF80F109DF828
:103C00000E309DF80D2042F0C00203EB41133D49F8
:103C100041F823209DF80C309DF90B20012000FA7B
:103C200002F1374C03F5006354F8232022EA010225
:103C300044F82320C1E79DF80F109DF80E309DF841
:103C40000D2042F0D80203EB41132E4941F8232006
:103C50009DF80C309DF90B20012000FA02F1284C50
:103C600003F5006354F8232022EA010244F82320DC
:103C7000A3E79DF80F109DF80E309DF80D2042F03F
:103C8000C80203EB41131F4941F823209DF80C3073
:103C90009DF90B20012000FA02F1194C03F5006395
:103CA00054F8232022EA010244F8232085E79DF8F6
:103CB0000F109DF80E309DF80D2042F0D00203EB5E
:103CC0004113104941F823209DF80C409DF90B2029
:103CD000012000FA02F10A4B04F5006553F8256053
:103CE000314343F82510D2B203EB44130021995419
:103CF00063E7002070470020704700205DE700BFA9
:103D000000400F400060084010F1020F2DD0B0F1CC
:103D1000FF3F2CD010B584B00C4600238DF80F3037
:103D20008DF80E308DF80D308DF80C308DF80B308D
:103D30000DF10B03019303AB00930DF10D030DF196
:103D40000E020DF10F01FFF7EFFE9DF80C309DF80C
:103D50000B20211C18BF01215B0103F1402303F557
:103D600070239954012004B010BD0020704700203A
:103D7000704710F1020F2CD0B0F1FF3F2BD000B5EF
:103D800085B000238DF80F308DF80E308DF80D3092
:103D90008DF80C308DF80B300DF10B03019303AB54
:103DA00000930DF10D030DF10E020DF10F01FFF760
:103DB000BBFE9DF90C309DF80B205B0103F1402305
:103DC00003F57023985C003018BF012005B05DF842
:103DD00004FB012070470020704708B5FDF72CFD5B
:103DE000002108BD70B5044600EB40029300224A52
:103DF000D6587569EDB215F0010F0AD028B91F4BDE
:103E00001B6813B11E4A10689847032C14D0052C68
:103E10001AD015F0200F0ED0736813F0020F0AD0DD
:103E20002CB9184B1B6813B1174A10689847032C1C
:103E300012D0052C18D070BD144B1B68002BE6D097
:103E4000134A10689847E2E7124B1B68002BE0D03A
:103E5000114A10689847DCE7104B1B68002BE8D02C
:103E60000F4A10689847E4E70E4B1B68002BE2D01E
:103E70000D4A10689847DEE7E45A001A54220010F1
:103E8000582200106C220010702200105C220010DA
:103E900060220010642200106822001074220010BA
:103EA000782200107C2200108022001000EB4000DD
:103EB0008300034AD358586900F02000704700BFC0
:103EC000E45A001A00EB40008300024AD3581960FC
:103ED000704700BFE45A001A2DE9F843804689462E
:103EE000194C45002A189300E618E7583846FFF7A2
:103EF00039FD49463846FFF75FFD0723BB603B6845
:103F00000123FB6530797379B27942F018020F49C9
:103F100003EB401341F82320F079337A727A42F0B0
:103F2000D00203EB401341F82320B8F1010F01D078
:103F3000BDE8F883064AD36C43F03003D3641A22F9
:103F4000C1F80823F4E700BFE45A001A00600840F3
:103F50000010084038B504460D462046FFF7A6FF7E
:103F60000028FAD029462046FFF7ACFF38BD38B507
:103F700005460C46217821B12846FFF7EBFF0134B6
:103F8000F8E738BD08B50320FFF72CFF08BD08B5DA
:103F90000520FFF727FF08BD08B5044B1B681B6809
:103FA000DB68034A1068984708BD00BF082300106B
:103FB0008422001008B5FFF7EFF9184B1868FFF7D7
:103FC000A5FD05210020FFF7C9FD00212420FFF7F2
:103FD000C5FD00212520FFF7C1FD00212620FFF7A8
:103FE000BDFD00212720FFF7B9FD01212820FFF7A3
:103FF000B5FD01212920FFF7B1FD01212A20FFF79E
:10400000ADFD01212B20FFF7A9FD01212C20FFF799
:10401000A5FD01212D20FFF7A1FD08BD04230010FF
:1040200008B50B46017011461846FFF755FF08BD4D
:1040300008B5FFF79CFF08BD08B50249FFF797FFD9
:1040400008BD00BF8058001A2DE9F8438046894614
:10405000FFF7C3FE06460F46FFF7BFFE841B61EB6A
:104060000705064BD3E900234046494600F008F80F
:104070008D4208BF8442EFD3BDE8F88340000010B2
:1040800053B94AB9002908BF00281CBF4FF0FF31BF
:104090004FF0FF3000F074B9ADF1080C6DE904CEBB
:1040A00000F006F8DDF804E0DDE9022304B0704713
:1040B0002DE9F047089E04468846002B40F0858095
:1040C0008A42154648D9B2FA82F24AB1C2F12007B3
:1040D00001FA02F320FA07F7954047EA03089440F3
:1040E0004FEA154E230CB8FBFEF71FFA85FC0EFBBA
:1040F000178843EA084307FB0CF1994209D9EB18EA
:1041000007F1FF3080F0E380994240F2E080023F07
:104110002B445B1AA4B2B3FBFEF00EFB103344EA4F
:10412000034400FB0CFCA44509D92C1900F1FF3312
:1041300080F0CB80A44540F2C88002382C4440EA8D
:104140000740A4EB0C0400271EB1D4400023C6E9AD
:1041500000433946BDE8F087002A53D0B2FA82F214
:10416000002A40F0B680491B4FEA154E1FFA85F829
:104170000127B1FBFEFC230C0EFB1C1143EA01439B
:1041800008FB0CF1994207D9EB180CF1FF3002D271
:10419000994200F2EC808446591AA3B2B1FBFEF0BA
:1041A0000EFB101443EA044408FB00F8A04507D9AD
:1041B0002C1900F1FF3302D2A04500F2DC80184632
:1041C000A4EB080440EA0C40BEE78B4208D9002E5D
:1041D00078D00027C6E9000138463946BDE8F087A7
:1041E000B3FA83F77FB98B4202D3824200F2BD80DB
:1041F000841A61EB030301209846002EA9D0C6E97A
:104200000048A6E7FFDEC7F12005BB4022FA05FC07
:104210004CEA030C01FA07F420FA05F821FA05F339
:104220004FEA1C4E48EA0404B3FBFEF9210C0EFBD6
:1042300019331FFA8CF841EA034309FB08FA9A453F
:1042400002FA07F200FA07F10BD91CEB030309F19C
:10425000FF3080F088809A4540F28580A9F10209FC
:104260006344A3EB0A03A4B2B3FBFEF00EFB1033CE
:1042700044EA034400FB08F8A04508D91CEB0404F9
:1042800000F1FF336BD2A04569D90238644440EA9B
:104290000940A4EB0804A0FB02894C45C6464B46E6
:1042A00054D351D0002E69D0B1EB0E0264EB03045D
:1042B00004FA05F522FA07F3FC401D43C6E9005451
:1042C000002746E73746304643E7184637E70746B4
:1042D0001FE7C2F1200320FA03F7954001FA02F02C
:1042E00021FA03F34FEA154E3843010CB3FBFEF7F6
:1042F0001FFA85F80EFB173341EA034107FB08F369
:104300008B4204FA02F407D9691807F1FF3C28D25E
:104310008B4226D9023F2944CB1A81B2B3FBFEF06F
:104320000EFB103341EA034100FB08F38B4207D92F
:10433000691800F1FF3C10D28B420ED90238294493
:10434000C91A40EA074714E74145ABD2B8EB020E61
:1043500069EB0C0201381346A4E76046F0E7184603
:1043600095E76746D8E781467BE7384645E7ACF1F5
:10437000020C2B4410E702382C4421E73746E8E6CC
:10438000704700BF8A892DE9F041054610070C46A9
:1043900058D44B68002B05DC0B6C002B02DC002092
:1043A000BDE8F081E66A002EF9D0002312F48052B5
:1043B0002F682B6032D0606DA3895A0705D56368DA
:1043C000C01A636B0BB1236CC01A00230246E66A65
:1043D000216A2846B047431CA38906D129681D29B4
:1043E00049D82A4ACA40D60745D500226260D90476
:1043F0002269226004D5421C01D12B6803B9606593
:10440000616B2F600029CAD004F14403994202D0A5
:10441000284600F0ABF900206063C1E7216A012360
:104420002846B047411CC7D12B68002BC4D01D2B98
:1044300001D0162B01D12F60B1E7A38943F04003CF
:10444000A381ADE70F69002FA9D093070E6808BFBD
:104450004B690F6018BF0023A6EB07088B60B8F10B
:10446000000F9CDD43463A46216AA66A2846B047BB
:10447000002806DCA38943F04003A3814FF0FF30FE
:104480008EE70744A8EB0008E9E700BF01004020E1
:1044900038B50B6905460C4613B90025284638BDCA
:1044A00018B183690BB900F087F8144B9C421BD1FB
:1044B0006C68B4F90C30002BEFD0626ED00704D4D6
:1044C000990502D4A06D00F038F928462146FFF77F
:1044D00059FF636EDA070546E0D4A3899B05DDD456
:1044E000A06D00F02BF9D9E7054B9C4201D1AC68D7
:1044F000DFE7044B9C4208BFEC68DAE74C5B001A2C
:104500006C5B001A2C5B001A002310B50446C0E94E
:104510000033836081814366C281C0E904338361D3
:10452000194608225C3000F018F9054B6362054B10
:10453000A362054BE362054B2462236310BD00BFF9
:10454000D14F001AF34F001A2B50001A4F50001A87
:10455000014900F0AFB800BF9144001A70B54A1E7F
:10456000682555430E4605F1740100F04DF90446E7
:1045700040B10021C0E900160C30A06005F16802CE
:1045800000F0EBF8204670BD014800F0D6B800BF3F
:1045900014230010014800F0D1B800BF142300100C
:1045A000014800F0CAB800BF0F230010014800F016
:1045B000C5B800BF0F23001010B50446FFF7F0FF89
:1045C000A3691BB1BDE81040FFF7F0BFC4E9123387
:1045D0002365134B134A1B68A262A34204BF012345
:1045E000A361204600F020F86060204600F01CF82F
:1045F000A060204600F018F80022E0600421606806
:10460000FFF782FF01220921A068FFF77DFF022248
:104610001221E068FFF778FF0123A361D2E700BF12
:104620008C5B001A5145001AF8B50746FFF7ACFF3E
:104630001E4B1E68B36913B93046FFF7BDFF4836FD
:10464000D6E90134013B03D533680BB33668F7E78D
:10465000B4F90C50D5B9164BE36004F15800656607
:1046600000F06AF8FFF796FF2560C4E90155C4E938
:104670000455A5610822294604F15C0000F06DF89C
:10468000C4E90D55C4E912552046F8BD6834D9E790
:1046900004213846FFF762FF044630600028D5D178
:1046A000FFF778FF0C233B60EEE700BF8C5B001A3E
:1046B0000100FFFF2DE9F8438046894600F14804D8
:1046C000002614B93046BDE8F883D4E90175013FEE
:1046D00001D52468F5E7AB89012B07D9B5F90E3070
:1046E000013303D029464046C84706436835EEE704
:1046F00070B50D4D0D4C641BA4100026A64209D1C7
:104700000B4D0C4CFCF745FA641BA4100026A64286
:1047100005D170BD55F8043B98470136EEE755F8D2
:10472000043B98470136F2E7C45B001AC45B001AE9
:10473000C45B001AC85B001A7047704770470A4490
:10474000914200F1FF3300D1704710B511F8014BD1
:1047500003F8014F9142F9D110BD02440346934240
:1047600000D1704703F8011BF9E7FFFF38B5054694
:10477000002945D051F8043C0C1F002BB8BFE418A9
:1047800000F0F8FD1F4A1368104633B963601460E7
:104790002846BDE8384000F0F3BDA3420CD921689B
:1047A0006218934204BF1A685B68636004BF5218C2
:1047B00022600460ECE713465A680AB1A242FAD9B3
:1047C00019685818A0420BD1206801445818824239
:1047D0001960DDD1106852685A6001441960D7E74A
:1047E00002D90C232B60D3E7206821188A4204BF2A
:1047F00011685268626004BF091821605C60C7E7F5
:1048000038BD00BF88220010F8B5CD1C25F0030587
:1048100008350C2D38BF0C25002D064601DBA942BA
:1048200003D90C2333600020F8BD00F0A3FD21491B
:104830000A6814469CB9204F3B6823B9214630468C
:10484000FCF7FCF9386029463046FCF7F7F9431CC1
:1048500023D10C233360304600F092FDE3E7236858
:104860005B1B17D40B2B03D923601C44256004E089
:104870006368A2420CBF0B605360304600F080FDBD
:1048800004F10B00231D20F00700C21ACCD01B1A24
:10489000A350C9E722466468CCE7C41C24F0030493
:1048A000A042E3D0211A3046FCF7C8F90130DDD12F
:1048B000CFE700BF882200108C2200109368013BD4
:1048C000002B10B4936008DA9469A34201DB0A2933
:1048D00003D15DF8044B00F0BFBB1368581C106097
:1048E000197008465DF8044B7047F8B506460F4648
:1048F0001446D518AC4201D1002007E03A4614F81E
:10490000011B3046FFF7DAFF431CF3D1F8BDFFFF70
:104910002DE9F04F0D469DB014461E46074618B1CE
:1049200083690BB9FFF748FE854B9D421BD17D681B
:104930006B6ED90705D4AB899A0502D4A86DFFF731
:10494000FCFEAB891B0701D52B69EBB9294638461C
:1049500000F0D4FBC0B16B6ED8070ED54FF0FF301E
:104960001DB0BDE8F08F774B9D4201D1BD68DFE7F8
:10497000754B9D4208BFFD68DAE7AB899905EDD418
:10498000A86DFFF7DBFEE9E70023099320238DF8EC
:104990002930DFF8B891039630238DF82A304FF094
:1049A000010A23461E4613F8012B0AB1252AF9D124
:1049B000B6EB040B0BD05B46224629463846FFF780
:1049C00094FF013000F0A380099B5B440993337886
:1049D000002B00F09C8000234FF0FF32CDE905232F
:1049E0000136049307938DF853301A933446052209
:1049F00014F8011B554800F053FC049BC0B9DA06BB
:104A000044BF20228DF85320180744BF2B228DF875
:104A1000532032782A2A13D0079A344600200A26D7
:104A2000214611F8013B303B092B4BD970B914E0FA
:104A3000A0EB09000AFA00F0184304902646D5E7D7
:104A4000039A111D12680391002A01DB079204E00A
:104A5000524243F002030792049323782E2B0CD189
:104A600063782A2B33D1039B1A1D1B680392002BFA
:104A7000B8BF4FF0FF3302340593354E217803223F
:104A8000304600F00DFC38B14023801B03FA00F0E3
:104A9000049B03430134049314F8011B2D488DF843
:104AA0002810062200F0FCFB00283FD02A4B13BB45
:104AB000039B073323F0070308330393099B434405
:104AC00009936EE706FB023201200C46A8E700239B
:104AD0000134059319460A26204610F8012B303A76
:104AE000092A03D9002BC8D00591C6E706FB01218E
:104AF00001230446F0E703AB00932A46174B04A9B1
:104B00003846AFF30080B0F1FF3F8046D6D16B6EE0
:104B1000D90705D4AB899A0502D4A86DFFF70EFE1C
:104B2000AB895B063FF51AAF099819E703AB009311
:104B30002A460A4B04A9384600F088F8E3E700BF8C
:104B40004C5B001A6C5B001A2C5B001A905B001A1D
:104B5000965B001A9A5B001A00000000EB48001AEE
:104B60002DE9F04791461F468A680B69DDF82080E1
:104B70009342B8BF1346C9F8003091F84320064667
:104B80000C4612B10133C9F800302368990642BFC0
:104B9000D9F800300233C9F80030256815F0060551
:104BA00007D104F1190AE368D9F800209B1AAB4237
:104BB00028DC94F843302268003318BF01239206A2
:104BC0002DD404F1430239463046C047013020D08D
:104BD0002368E568D9F8002003F00603042B08BF1A
:104BE000AD1AA36822690CBF25EAE575002593423A
:104BF000C4BF9B1AED184FF000091A344D451AD165
:104C0000002008E00123524639463046C0470130B3
:104C100003D14FF0FF30BDE8F0870135C3E7E1185D
:104C20005A1C302081F84300224494F8451082F841
:104C300043100233C5E70123224639463046C047B8
:104C40000130E6D009F10109D8E7FFFF2DE9F04373
:104C500006460C4601F14300097E85B06E29984650
:104C600017460C9B00F0BA8024D8632939D00AD8A3
:104C7000002900F0C380582900F0918004F142051A
:104C800084F8421035E0642901D06929F6D12568FD
:104C90001A6815F0800F02F104012CD01268196017
:104CA000002A03DA2D23524284F84330DFF8BCC1D6
:104CB0000A233FE0732900F0A58008D86F2921D08E
:104CC0007029DBD1226842F02002226003E07529BE
:104CD00018D07829D2D1782284F84520DFF890C105
:104CE00061E01A68111D1960136884F8423004F1FC
:104CF0004205012393E01268196015F0400F18BFB8
:104D000012B2CDE7D4F800C01A681CF0800F02F18F
:104D100004051D6001D0126803E01CF0400FFAD0BA
:104D20001288DFF848C16F290CBF08230A2300212D
:104D300084F843106568A560002DA2BF216821F0AA
:104D4000040121600AB9002D46D00546B2FBF3F1FB
:104D500003FB112E93421CF80EE005F801ED39D942
:104D6000082B0BD12368DA0708D5236962689A42B9
:104D7000DEBF302305F8013C05F1FF35401B206103
:104D8000CDF800803B4603AA21463046FFF7E8FEF7
:104D9000013049D14FF0FF3005B0BDE8F083DFF8B6
:104DA000CCC084F845101D68216855F8042B1D609F
:104DB0000D060BD5CD0744BF41F0200121601AB983
:104DC000236823F0200323601023B0E74B0648BF7D
:104DD00092B2EFE70A46B9E70546C1E71A68D4F888
:104DE00000C06169151D1D601CF0800F136801D0A3
:104DF000196003E01CF0400FFAD0198000232361F2
:104E00000546BDE71A68111D196015686268002122
:104E1000284600F045FA08B1401B606063682361D2
:104E2000002384F84330ABE723692A4639463046ED
:104E3000C0470130AED023689B0713D4E068039BC2
:104E40009842B8BF1846A7E701234A46394630467C
:104E5000C04701309ED00135E368039A9B1AAB42EC
:104E6000F2DCEBE7002504F11909F5E7A15B001A74
:104E7000B25B001A0FB40A4B13B51C6824B1A369C6
:104E800013B92046FFF798FB05AB049AA16801937C
:104E90002046FFF73DFD02B0BDE8104004B070476A
:104EA0004800001070B50E46054618B183690BB96D
:104EB000FFF782FBAB69AC6813B92846FFF77CFBB0
:104EC0002C4B9C4220D16C68636EDB0705D4A38910
:104ED000980502D4A06DFFF730FCA38919071DD5F2
:104EE0002369DBB1013EA36816F8011F013BA360F3
:104EF00039BB002B38DA22460A21284600F0ACF8EC
:104F0000013011D00A2511E01B4B9C4201D1AC6845
:104F1000DAE71A4B9C4208BFEC68D5E721462846E1
:104F200000F0ECF80028DDD04FF0FF35636EDA07B3
:104F300005D4A3899B0502D4A06DFFF7FFFB28468B
:104F400070BD002B04DAA2699A4206DC0A2904D05B
:104F500023685A1C22601970C5E72246284600F0D3
:104F60007BF80130BFD1DFE723680A255A1C226095
:104F70001D70DBE74C5B001A6C5B001A2C5B001A9F
:104F8000024B01461868FFF78DBF00BF48000010B4
:104F90000EB400B59CB01DAB029006906FF00041BE
:104FA000094807910491094953F8042B05910068B9
:104FB000019302A900F06CFA029B00221A701CB047
:104FC0005DF804EB03B07047480000100802FFFFD3
:104FD00010B50C46B1F90E10FBF7F4FD0028ABBF7D
:104FE000636DA3891B1823F48053ACBF6365A38151
:104FF00010BD2DE9F0411F468B89DB0505460C46A7
:10500000164605D502230022B1F90E10FBF7D5FD97
:10501000A389B4F90E1023F48053A38132463B4692
:105020002846BDE8F041FBF7F4BD10B50C46B1F9D8
:105030000E10FBF7C2FD431CA38915BF606523F466
:10504000805343F48053A38118BFA38110BDB1F9ED
:105050000E10FBF79FBDFFFFF8B50E461446054640
:1050600018B183690BB9FFF7A7FA214B9C422BD1EA
:105070006C68A369A360A3891A072FD523696BB352
:1050800023692068C01A6369F6B28342374604DC9C
:1050900021462846FFF7FCF930BBA368013BA3601B
:1050A00023685A1C22601E7063690130834204D059
:1050B000A389DB0706D50A2E04D121462846FFF72F
:1050C000E7F988B93846F8BD0A4B9C4201D1AC6873
:1050D000CFE7094B9C4208BFEC68CAE72146284647
:1050E00000F00CF80028CBD04FF0FF37EAE700BF04
:1050F0004C5B001A6C5B001A2C5B001A324B70B5CB
:105100001D6806460C4625B1AB6913B92846FFF762
:1051100053FA2E4B9C420FD16C68B4F90C309AB202
:1051200015072CD4D00611D40922326043F0400375
:10513000A3814FF0FF303EE0254B9C4201D1AC688B
:10514000EBE7244B9C4208BFEC68E6E7510712D519
:10515000616B41B104F14403994202D03046FFF73C
:1051600005FB00236363A38923F02403A3810023A9
:10517000636023692360A38943F00803A381236943
:105180004BB9A38903F42073B3F5007F03D0214604
:10519000304600F045F8A28912F001030CD000233C
:1051A000A36063695B42A361236953B9B4F90C300E
:1051B00013F08000BAD170BD920758BF6369A36035
:1051C000F2E70020F7E700BF480000104C5B001A30
:1051D0006C5B001A2C5B001A70B50E46B1F90E100C
:1051E000002996B014461D4607DA00232B60B389C8
:1051F0001A0610D44FF480630EE06A46FBF7CFFC2A
:105200000028F2DB019A02F47042A2F500535A42E0
:105210005A412A60EEE740230020236016B070BD9B
:105220008B8973B59D0706460C4607D504F14703E5
:10523000236023610123636102B070BD01AB6A4644
:10524000FFF7CAFF009905463046FFF7DDFA48B977
:10525000B4F90C309A05EFD423F0030343F00203B2
:10526000A381E3E70D4BB362A389206043F0800381
:10527000A381009B6361019B20615BB1B4F90E10B7
:105280003046FBF791FC28B1A38923F0030343F0D8
:105290000103A381A3891D43A581CDE75145001AD0
:1052A00001F0FF01102A2BDB10F0070F08D010F8D7
:1052B000013B013A8B422DD010F0070F42B3F6D1DB
:1052C000F0B441EA012141EA014122F007047FF0F4
:1052D00000070023F0E80256083C85EA010586EA4B
:1052E000010685FA47F5A3FA87F586FA47F6A5FA87
:1052F00087F68EB9EED1F0BC01F0FF0102F0070293
:1053000032B110F8013B013A83EA010313B1F8D13D
:105310000020704701387047002D06BF354603381E
:10532000073815F0010F07D1013015F4807F02BF57
:10533000013015F4C03F0130F0BC0138704700BFA8
:10534000884210B501EB020302D983421C4607D8FC
:10535000421E994208D011F8014B02F8014FF8E7BC
:1053600083189A1A9A4200D110BD14F8011D03F84F
:10537000011DF7E70148FFF7E0B900BF1023001057
:105380000148FFF7DBB900BF10230010F8B507464E
:1053900014460E4621B91146BDE8F840FFF734BA6D
:1053A00022B9FFF7E3F925462846F8BD00F068F971
:1053B000A0420FD221463846FFF726FA05460028BC
:1053C000F2D031462246FFF7BAF931463846FFF7A8
:1053D000CDF9E9E73546E7E72DE9F0478E689E42CB
:1053E00082460C469146984638D8B1F80CC01CF459
:1053F000906F31D062692568096902EB42026F1A29
:1054000002EBD272013355103B449D4238BF1D461A
:105410001CF4806F30D02946FFF7F6F9064650B9E4
:105420000C23CAF80030A38943F04003A3814FF056
:10543000FF30BDE8F0873A462169FFF780F9A3897C
:1054400023F4906343F08003A381266165613E44A9
:10545000ED1B2660A5604646464500D946463246C5
:1054600049462068FFF76CFFA3689B1BA360236875
:105470001E4426600020DCE72A46FFF787FF064629
:105480000028E2D121695046FFF770F9C8E7FFFF15
:105490002DE9F04F1E468B891B069DB007460D4631
:1054A00014460ED50B6963B94021FFF7ADF92860AA
:1054B000286120B90C233B604FF0FF30C9E0402346
:1054C0006B610023099320238DF82930DFF89C912C
:1054D000039630238DF82A304FF0010A23461E46EA
:1054E00013F8012B0AB1252AF9D1B6EB040B0BD026
:1054F0005B46224629463846FFF76EFF013000F032
:10550000A380099B5B4409933378002B00F09C80B7
:1055100000234FF0FF32CDE90523013604930793B2
:105520008DF853301A933446052214F8011B4F4866
:10553000FFF7B6FE049BC0B9D90644BF20228DF800
:1055400053201A0744BF2B228DF8532032782A2A81
:1055500013D0079A344600200A26214611F8013B51
:10556000303B092B4BD970B914E0A0EB09000AFAC3
:1055700000F0184304902646D5E7039A111D1268DF
:105580000391002A01DB079204E0524243F0020338
:105590000792049323782E2B0CD163782A2B33D1D6
:1055A000039B1A1D1B680392002BB8BF4FF0FF33FB
:1055B000023405932E4E217803223046FFF770FE09
:1055C00038B14023801B03FA00F0049B03430134ED
:1055D000049314F8011B27488DF828100622FFF7C2
:1055E0005FFE002838D0244B13BB039B073323F006
:1055F000070308330393099B434409936EE706FBB3
:10560000023201200C46A8E7002301340593194615
:105610000A26204610F8012B303A092A03D9002B1C
:10562000C8D00591C6E706FB012101230446F0E737
:1056300003AB00932A46114B04A93846AFF3008010
:10564000B0F1FF3F8046D6D1AB895B063FF534AF62
:1056500009981DB0BDE8F08F03AB00932A46074BB5
:1056600004A93846FFF7F2FAEAE700BF905B001A98
:10567000965B001A9A5B001A00000000D953001ACA
:1056800051F8043C181F002BBCBF0B58C0187047C2
:10569000663A20256C75200D0A00FFFF54415245E3
:1056A000415F4A554D5000FF7461736B5F6D6561DA
:1056B000737572656D656E74000000007461736BC4
:1056C0005F776169740000007461736B5F61766578
:1056D00072616765000000004F66667365743A206A
:1056E000256C75200D0A00FF77616974696E67008B
:1056F00054502050726F666573696F6E616C2E0036
:105700007461736B5F746172650000007461736B28
:105710005F5278007461736B5F5478004572726FEA
:105720007220636F6C6100004572726F7220616C51
:10573000206372656172206C617320636F6C6173AA
:105740002E0D0A004572726F7220616C20637265C3
:105750006172206C6F732073656D61666F726F7319
:105760002E0D0A004572726F7220616C20637265A3
:105770006172206C6173207461726561732E200DFB
:105780000A00FFFF7461736B5F6A756D7000FFFF45
:105790004F66667365743A20256C752C20467565D6
:1057A000727A613A20256C752C205065736F3A200F
:1057B0002573200D0A00FFFF546D725100FFFFFF9B
:1057C000546D72205376630049444C4500FFFFFF3F
:1057D0004170706C69636174696F6E204D616C6CAF
:1057E0006F63204661696C656420486F6F6B210DA3
:1057F000000000006C6962732F6672656572746FD9
:10580000732F736F757263652F686F6F6B732E6381
:1058100000FFFFFF0D0A4170706C69636174696F6E
:105820006E20537461636B204F766572666C6F7780
:105830002121206F6E205461736B3A2025730D0A6D
:1058400000FFFFFF0D0A7641737365727443616C4C
:105850006C656428290D0A2020204C4C696E652057
:105860004E756D626572203D2025640D0A20202052
:1058700046696C65204E616D65203D2025730D0ADB
:105880000D0A00FF010F0101020044000201440063
:1058900002024400020A4000020B4000020C4000D9
:1058A00001005000010150000102500001065000AB
:1058B000060150000604500006055000060754007B
:1058C0000608540006095000060A5000060B500056
:1058D000060C50000F04F0000103D5000104D500B0
:1058E000070116000702560002035200020452008C
:1058F0000905520009065700060257000000000083
:105900000004000800090109050005010502000E58
:10591000010B010C030003030304050F051003052D
:10592000030603070208FFFF001BB7000001010088
:10593000090901000A09010001070101020901002A
:10594000060901000C0901010D0901000E09010001
:105950000F090100100901001109010012090100DD
:105960001309010014110100191101001A1101009D
:105970001B11010001020408030F0F0FFF00FFFFBE
:10598000000005000A00200024000900400040003B
:1059900005006000A6000400C000C3000200E00093
:1059A000E0000100000100010300200120010600C9
:1059B000400140010C0042014201190062016201F4
:1059C0001300820182011200A201A2011100C20192
:1059D000C2011000E201E2010F00020202020E0009
:1059E000220222020D00230223021C00C201A20196
:1059F0008201620181008200A100A2000401000274
:105A000001070500030D0105000108040200020260
:105A100004030002030400000200070400030C0357
:105A20000204050903010405080203040503020436
:105A3000040504060C000208060B00030706090013
:105A40000305060704050F0604000303040400020F
:105A50000404050002050406000206040804050CFF
:105A6000040A04050E010300000A011400000F01DE
:105A70001200000D011100000C01100000030707C7
:105A800000030F00010000010000000000060A00F2
:105A900003060608040510060500030406010003BA
:105AA00000040904050D010400000B010F000002B1
:105AB00001000000040101000008010200000901CA
:105AC00006000109020004050002010405010202AA
:105AD000040502020A00000E020B00010B020C007A
